{
  "_format": "hh-sol-artifact-1",
  "contractName": "PassNexusRegistry",
  "sourceName": "contracts/PassNexusRegistry.sol",
  "abi": [
    {
      "anonymous": false,
      "inputs": [
        {
          "indexed": true,
          "internalType": "address",
          "name": "user",
          "type": "address"
        },
        {
          "indexed": true,
          "internalType": "address",
          "name": "friend",
          "type": "address"
        }
      ],
      "name": "FriendAdded",
      "type": "event"
    },
    {
      "anonymous": false,
      "inputs": [
        {
          "indexed": true,
          "internalType": "address",
          "name": "user",
          "type": "address"
        },
        {
          "indexed": false,
          "internalType": "string",
          "name": "publicKey",
          "type": "string"
        }
      ],
      "name": "UserRegistered",
      "type": "event"
    },
    {
      "inputs": [
        {
          "internalType": "address",
          "name": "friendAddress",
          "type": "address"
        }
      ],
      "name": "addFriend",
      "outputs": [],
      "stateMutability": "nonpayable",
      "type": "function"
    },
    {
      "inputs": [
        {
          "internalType": "address",
          "name": "userAddress",
          "type": "address"
        }
      ],
      "name": "getFriendCount",
      "outputs": [
        {
          "internalType": "uint256",
          "name": "",
          "type": "uint256"
        }
      ],
      "stateMutability": "view",
      "type": "function"
    },
    {
      "inputs": [],
      "name": "getFriends",
      "outputs": [
        {
          "internalType": "address[]",
          "name": "",
          "type": "address[]"
        }
      ],
      "stateMutability": "view",
      "type": "function"
    },
    {
      "inputs": [
        {
          "internalType": "address",
          "name": "userAddress",
          "type": "address"
        }
      ],
      "name": "getPublicKey",
      "outputs": [
        {
          "internalType": "string",
          "name": "",
          "type": "string"
        }
      ],
      "stateMutability": "view",
      "type": "function"
    },
    {
      "inputs": [
        {
          "internalType": "address",
          "name": "user",
          "type": "address"
        },
        {
          "internalType": "address",
          "name": "friend",
          "type": "address"
        }
      ],
      "name": "isFriend",
      "outputs": [
        {
          "internalType": "bool",
          "name": "",
          "type": "bool"
        }
      ],
      "stateMutability": "view",
      "type": "function"
    },
    {
      "inputs": [
        {
          "internalType": "address",
          "name": "userAddress",
          "type": "address"
        }
      ],
      "name": "isUserRegistered",
      "outputs": [
        {
          "internalType": "bool",
          "name": "",
          "type": "bool"
        }
      ],
      "stateMutability": "view",
      "type": "function"
    },
    {
      "inputs": [
        {
          "internalType": "string",
          "name": "publicKey",
          "type": "string"
        }
      ],
      "name": "registerUser",
      "outputs": [],
      "stateMutability": "nonpayable",
      "type": "function"
    }
  ],
  "bytecode": "0x6080604052348015600f57600080fd5b506114cb8061001f6000396000f3fe608060405234801561001057600080fd5b506004361061007d5760003560e01c806366b282531161005b57806366b2825314610100578063704f1b9414610130578063857cdbb81461014c578063d7a1cfe11461017c5761007d565b8063163f7522146100825780631f8f7270146100b25780632da5d42e146100d0575b600080fd5b61009c60048036038101906100979190610aad565b610198565b6040516100a99190610af5565b60405180910390f35b6100ba6101ee565b6040516100c79190610bce565b60405180910390f35b6100ea60048036038101906100e59190610bf0565b6102b9565b6040516100f79190610af5565b60405180910390f35b61011a60048036038101906101159190610aad565b610400565b6040516101279190610c49565b60405180910390f35b61014a60048036038101906101459190610daa565b61044c565b005b61016660048036038101906101619190610aad565b610612565b6040516101739190610e72565b60405180910390f35b61019660048036038101906101919190610aad565b61076e565b005b6000600260008373ffffffffffffffffffffffffffffffffffffffff1673ffffffffffffffffffffffffffffffffffffffff16815260200190815260200160002060009054906101000a900460ff169050919050565b6060600160003373ffffffffffffffffffffffffffffffffffffffff1673ffffffffffffffffffffffffffffffffffffffff1681526020019081526020016000208054806020026020016040519081016040528092919081815260200182805480156102af57602002820191906000526020600020905b8160009054906101000a900473ffffffffffffffffffffffffffffffffffffffff1673ffffffffffffffffffffffffffffffffffffffff1681526020019060010190808311610265575b5050505050905090565b600080600160008573ffffffffffffffffffffffffffffffffffffffff1673ffffffffffffffffffffffffffffffffffffffff16815260200190815260200160002080548060200260200160405190810160405280929190818152602001828054801561037b57602002820191906000526020600020905b8160009054906101000a900473ffffffffffffffffffffffffffffffffffffffff1673ffffffffffffffffffffffffffffffffffffffff1681526020019060010190808311610331575b5050505050905060005b81518110156103f3578373ffffffffffffffffffffffffffffffffffffffff168282815181106103b8576103b7610e94565b5b602002602001015173ffffffffffffffffffffffffffffffffffffffff16036103e6576001925050506103fa565b8080600101915050610385565b5060009150505b92915050565b6000600160008373ffffffffffffffffffffffffffffffffffffffff1673ffffffffffffffffffffffffffffffffffffffff168152602001908152602001600020805490509050919050565b6000815111610490576040517f08c379a000000000000000000000000000000000000000000000000000000000815260040161048790610f0f565b60405180910390fd5b600260003373ffffffffffffffffffffffffffffffffffffffff1673ffffffffffffffffffffffffffffffffffffffff16815260200190815260200160002060009054906101000a900460ff161561051d576040517f08c379a000000000000000000000000000000000000000000000000000000000815260040161051490610f7b565b60405180910390fd5b806000803373ffffffffffffffffffffffffffffffffffffffff1673ffffffffffffffffffffffffffffffffffffffff168152602001908152602001600020908161056891906111a7565b506001600260003373ffffffffffffffffffffffffffffffffffffffff1673ffffffffffffffffffffffffffffffffffffffff16815260200190815260200160002060006101000a81548160ff0219169083151502179055503373ffffffffffffffffffffffffffffffffffffffff167f48cac28ad4dc618e15f4c2dd5e97751182f166de97b25618318b2112aa951a2f826040516106079190610e72565b60405180910390a250565b6060600260008373ffffffffffffffffffffffffffffffffffffffff1673ffffffffffffffffffffffffffffffffffffffff16815260200190815260200160002060009054906101000a900460ff166106a0576040517f08c379a0000000000000000000000000000000000000000000000000000000008152600401610697906112c5565b60405180910390fd5b6000808373ffffffffffffffffffffffffffffffffffffffff1673ffffffffffffffffffffffffffffffffffffffff16815260200190815260200160002080546106e990610fca565b80601f016020809104026020016040519081016040528092919081815260200182805461071590610fca565b80156107625780601f1061073757610100808354040283529160200191610762565b820191906000526020600020905b81548152906001019060200180831161074557829003601f168201915b50505050509050919050565b600260003373ffffffffffffffffffffffffffffffffffffffff1673ffffffffffffffffffffffffffffffffffffffff16815260200190815260200160002060009054906101000a900460ff166107fa576040517f08c379a00000000000000000000000000000000000000000000000000000000081526004016107f190611331565b60405180910390fd5b600260008273ffffffffffffffffffffffffffffffffffffffff1673ffffffffffffffffffffffffffffffffffffffff16815260200190815260200160002060009054906101000a900460ff16610886576040517f08c379a000000000000000000000000000000000000000000000000000000000815260040161087d9061139d565b60405180910390fd5b3373ffffffffffffffffffffffffffffffffffffffff168173ffffffffffffffffffffffffffffffffffffffff16036108f4576040517f08c379a00000000000000000000000000000000000000000000000000000000081526004016108eb90611409565b60405180910390fd5b6108fe33826102b9565b1561093e576040517f08c379a000000000000000000000000000000000000000000000000000000000815260040161093590611475565b60405180910390fd5b600160003373ffffffffffffffffffffffffffffffffffffffff1673ffffffffffffffffffffffffffffffffffffffff168152602001908152602001600020819080600181540180825580915050600190039060005260206000200160009091909190916101000a81548173ffffffffffffffffffffffffffffffffffffffff021916908373ffffffffffffffffffffffffffffffffffffffff1602179055508073ffffffffffffffffffffffffffffffffffffffff163373ffffffffffffffffffffffffffffffffffffffff167f6cbc8134e69f02f9dbaa28d8f3d760a490876f55060afa4d6882a86c2590cc7b60405160405180910390a350565b6000604051905090565b600080fd5b600080fd5b600073ffffffffffffffffffffffffffffffffffffffff82169050919050565b6000610a7a82610a4f565b9050919050565b610a8a81610a6f565b8114610a9557600080fd5b50565b600081359050610aa781610a81565b92915050565b600060208284031215610ac357610ac2610a45565b5b6000610ad184828501610a98565b91505092915050565b60008115159050919050565b610aef81610ada565b82525050565b6000602082019050610b0a6000830184610ae6565b92915050565b600081519050919050565b600082825260208201905092915050565b6000819050602082019050919050565b610b4581610a6f565b82525050565b6000610b578383610b3c565b60208301905092915050565b6000602082019050919050565b6000610b7b82610b10565b610b858185610b1b565b9350610b9083610b2c565b8060005b83811015610bc1578151610ba88882610b4b565b9750610bb383610b63565b925050600181019050610b94565b5085935050505092915050565b60006020820190508181036000830152610be88184610b70565b905092915050565b60008060408385031215610c0757610c06610a45565b5b6000610c1585828601610a98565b9250506020610c2685828601610a98565b9150509250929050565b6000819050919050565b610c4381610c30565b82525050565b6000602082019050610c5e6000830184610c3a565b92915050565b600080fd5b600080fd5b6000601f19601f8301169050919050565b7f4e487b7100000000000000000000000000000000000000000000000000000000600052604160045260246000fd5b610cb782610c6e565b810181811067ffffffffffffffff82111715610cd657610cd5610c7f565b5b80604052505050565b6000610ce9610a3b565b9050610cf58282610cae565b919050565b600067ffffffffffffffff821115610d1557610d14610c7f565b5b610d1e82610c6e565b9050602081019050919050565b82818337600083830152505050565b6000610d4d610d4884610cfa565b610cdf565b905082815260208101848484011115610d6957610d68610c69565b5b610d74848285610d2b565b509392505050565b600082601f830112610d9157610d90610c64565b5b8135610da1848260208601610d3a565b91505092915050565b600060208284031215610dc057610dbf610a45565b5b600082013567ffffffffffffffff811115610dde57610ddd610a4a565b5b610dea84828501610d7c565b91505092915050565b600081519050919050565b600082825260208201905092915050565b60005b83811015610e2d578082015181840152602081019050610e12565b60008484015250505050565b6000610e4482610df3565b610e4e8185610dfe565b9350610e5e818560208601610e0f565b610e6781610c6e565b840191505092915050565b60006020820190508181036000830152610e8c8184610e39565b905092915050565b7f4e487b7100000000000000000000000000000000000000000000000000000000600052603260045260246000fd5b7f5075626c6963206b65792063616e6e6f7420626520656d707479000000000000600082015250565b6000610ef9601a83610dfe565b9150610f0482610ec3565b602082019050919050565b60006020820190508181036000830152610f2881610eec565b9050919050565b7f5573657220616c72656164792072656769737465726564000000000000000000600082015250565b6000610f65601783610dfe565b9150610f7082610f2f565b602082019050919050565b60006020820190508181036000830152610f9481610f58565b9050919050565b7f4e487b7100000000000000000000000000000000000000000000000000000000600052602260045260246000fd5b60006002820490506001821680610fe257607f821691505b602082108103610ff557610ff4610f9b565b5b50919050565b60008190508160005260206000209050919050565b60006020601f8301049050919050565b600082821b905092915050565b60006008830261105d7fffffffffffffffffffffffffffffffffffffffffffffffffffffffffffffffff82611020565b6110678683611020565b95508019841693508086168417925050509392505050565b6000819050919050565b60006110a461109f61109a84610c30565b61107f565b610c30565b9050919050565b6000819050919050565b6110be83611089565b6110d26110ca826110ab565b84845461102d565b825550505050565b600090565b6110e76110da565b6110f28184846110b5565b505050565b5b818110156111165761110b6000826110df565b6001810190506110f8565b5050565b601f82111561115b5761112c81610ffb565b61113584611010565b81016020851015611144578190505b61115861115085611010565b8301826110f7565b50505b505050565b600082821c905092915050565b600061117e60001984600802611160565b1980831691505092915050565b6000611197838361116d565b9150826002028217905092915050565b6111b082610df3565b67ffffffffffffffff8111156111c9576111c8610c7f565b5b6111d38254610fca565b6111de82828561111a565b600060209050601f83116001811461121157600084156111ff578287015190505b611209858261118b565b865550611271565b601f19841661121f86610ffb565b60005b8281101561124757848901518255600182019150602085019450602081019050611222565b868310156112645784890151611260601f89168261116d565b8355505b6001600288020188555050505b505050505050565b7f55736572206e6f74207265676973746572656400000000000000000000000000600082015250565b60006112af601383610dfe565b91506112ba82611279565b602082019050919050565b600060208201905081810360008301526112de816112a2565b9050919050565b7f596f75206d757374206265207265676973746572656420666972737400000000600082015250565b600061131b601c83610dfe565b9150611326826112e5565b602082019050919050565b6000602082019050818103600083015261134a8161130e565b9050919050565b7f467269656e64206d757374206265207265676973746572656400000000000000600082015250565b6000611387601983610dfe565b915061139282611351565b602082019050919050565b600060208201905081810360008301526113b68161137a565b9050919050565b7f43616e6e6f742061646420796f757273656c66206173206120667269656e6400600082015250565b60006113f3601f83610dfe565b91506113fe826113bd565b602082019050919050565b60006020820190508181036000830152611422816113e6565b9050919050565b7f416c726561647920667269656e64730000000000000000000000000000000000600082015250565b600061145f600f83610dfe565b915061146a82611429565b602082019050919050565b6000602082019050818103600083015261148e81611452565b905091905056fea2646970667358221220d73c20d4bcb781e4bdaa89a8f9037cf383585991d7b67f3a2d066503aa8945e564736f6c634300081c0033",
  "linkReferences": {},
  "deployedLinkReferences": {}
}